:1000000012C021C020C01FC01EC01DC01CC01BC00C
:100010001AC028C118C017C016C015C014C013C01C
:1000200012C011C010C011241FBECFE5D4E0DEBF46
:10003000CDBF10E0A0E6B0E001C01D92A736B10729
:10004000E1F756D196C1DCCFFC019081FB018081A4
:1000500091110CC0992787FD909590936300809330
:10006000620090936500809364006BC0482F552711
:1000700047FD5095292F332727FD309587FD2AC04E
:1000800097FF14C0CA01820F931F9093630080935F
:100090006200B90161587F4F469FC001479F900D94
:1000A000569F900D11246FE770E044C0CA01821B77
:1000B000930B90936500809364006FE770E0FB0101
:1000C000E21BF30B4E9FC0014F9F900D5E9F900D62
:1000D000112415C097FF1BC0CA01821B930B90937C
:1000E000650080936400B90161587F4F469FC0014D
:1000F000479F900D569F900D11246FE770E012D12D
:10010000620F731F70936300609362001AC0CA018C
:10011000820F931F90936300809362006FE770E0FB
:10012000FB01E21BF30B4E9FC0014F9F900D5E9FA2
:10013000900D1124F7D0621B730B709365006093D0
:10014000640080916200909163001816190624F4EF
:1001500082B3807F846008C0892B21F082B3807FC6
:10016000886002C082B3807F82BB809164009091DE
:10017000650022B32C7F1816190614F4216003C001
:10018000009709F0226022BB9C01220F331F96FFCB
:1001900003C03195219531093BBD2ABD20916200F4
:1001A00030916300C901880F991F36FF03C09195F4
:1001B0008195910999BD88BD08958091660083FD60
:1001C00008C0809160008F3731F08F5F80936000AE
:1001D00002C090E001C091E08091660082FD08C0FD
:1001E0008091600082381CF081508093600091E023
:1001F0008091660081FD08C080916100823834F0F2
:1002000081508093610002C080E001C081E02091B4
:10021000660020FD08C0809161008F3719F08F5F64
:100220008093610081E091110BC0909160001916DC
:1002300014F4915003C0992319F09F5F90936000CC
:1002400081110BC080916100181614F4815003C015
:10025000882319F08F5F8093610060E670E081E68B
:1002600090E0F2CE1F920F920FB60F9211242F93AF
:100270003F934F935F936F937F938F939F93AF932E
:10028000BF93EF93FF9316D0FF91EF91BF91AF9182
:100290009F918F917F916F915F914F913F912F919E
:1002A0000F900FBE0F901F90189583E084BB81E0E4
:1002B00085BB0895A99A87E18A95F1F70000A9986E
:1002C00098E08091660023B322FB222720F9880F53
:1002D000822B8093660087E18A95F1F70000A89A47
:1002E00087E18A95F1F70000A898915051F7089599
:1002F000DCDF8FEF87BB88BB8FE081BB81EA8FBDDE
:1003000089E08EBD83B7836083BF89B7816089BF71
:100310007894D0DF52DF89EF90E00197F1F700C0C9
:100320000000F8CF97FB072E16F4009406D077FD57
:1003300008D00BD007FC05D03EF4909581959F4FD7
:100340000895709561957F4F0895AA1BBB1B51E1DD
:1003500007C0AA1FBB1FA617B70710F0A61BB70B35
:10036000881F991F5A95A9F780959095BC01CD01DA
:060370000895F894FFCF90
:00000001FF
